:100000000C94691D0C9425200C9456200C94872088
:100010000C94B8200C94E9200C941A210C944B21D8
:100020000C947C210C949A1D0C949A1D0C949A1D8E
:100030000C949A1D0C94CEEF0C949A1D0C949A1D5E
:100040000C949A1D0C9457C90C949A1D0C949A1DEB
:100050000C949A1D0C949A1D0C94E3DA0C949C1D3C
:100060000C949A1D0C9451A30C949A1D0C949A1DF7
:100070000C949A1D0C949A1D0C949A1D0C949A1D24
:100080000C949A1D0C949A1D0C949A1D0C949A1D14
:100090000C949A1D0C949A1D0C949A1D0C94F12AA0
:1000A0000C949A1D0C949A1D0C949A1D0C949A1DF4
:1000B0000C949A1D0C949A1D0C949A1D0C949A1DE4
:1000C0000C949A1D0C949A1D0C949A1D0C949A1DD4
:1000D0000C949A1D0C949A1D0C949A1D0C949A1DC4
:1000E0000C949A1DD21ED71EDC1EE61E5F1FF01E4A
:1000F000F81E001F0A1F141F1E1F2D1F371F5F1F12
:10010000411F4B1F551F7F1F821F751F791FB91F6E
:10011000861F8A1F901F941F981F9E1FA21FA61F35
:10012000B91FAC1FB01FB41F2225222530253E2544
:100130005A2568257625842595254C252FEE32EE07
:100140002FEF31EF33EF35EFE5EE37EF39EF3CEFDF
:10015000E5EE3FEF43EF02EF45EF47EF49EFE5EE06
:100160000FEF25EF20EFE5EE2AEF47EE49EE57EED1
:1001700059EE5BEE5DEE63EE65EE67EE69EE73EEF3
:1001800075EE79EE7BEE81EE83EEE5EEE5EEE5EEE3
:10019000E5EEE5EEE5EEE5EEE5EEE5EEE5EEE5EEC7
:1001A000E5EEE5EEE5EEE5EEE5EEE5EEE5EEE5EEB7
:1001B000E5EEE5EEE5EEE5EEE5EEE5EEE5EEE5EEA7
:1001C000E5EEE5EEE5EEE5EEE5EEE5EEE5EEE5EE97
:1001D000E5EEE5EEE5EEE5EEE5EEE5EEE5EEE5EE87
:1001E000E5EEE5EEE5EEE5EEE5EEE5EEE5EEE5EE77
:1001F000E5EEE5EEE5EEE5EEE5EEE5EEE5EEE5EE67
:10020000E5EEE5EE8AEEAAEE084AD73B3BCE016E5C
:1002100084BCBFFDC12F3D6C74319ABD56833DDA5D
:100220003D00C77F11BED9E4BB4C3E916BAAAABE6C
:10023000000000803F05A84CCDB2D44EB93836A995
:10024000020C50B9918688083CA6AAAA2ABE0000D2
:1002500000803F000C94E5EE0C9463EE0C9479EE74
:100260000C94C1220C94D0390C947F480C94223504
:100270000C94A9410C9449510C94D44F0C94B91F7F
:100280000C9481EE0C9431EF0C94FD550C94863A4D
:100290000C9416680C94C43F0C94AA480C943E2508
:1002A0000C9444260C94BB550C94EB680C9420EFF2
:1002B0000C94D21E0C9497580C9480560C940A738C
:1002C0000C94303C0C945D680C94941F0C94D16792
:1002D0000C9467EE0C9421510C94551F0C943E3EE7
:1002E0000C94861F0C94901F0C94B01F0C948AEEF3
:1002F0000C94DC610C94A2540C94905A0C94981FAA
:100300000C94141F0C94E8470C943FEF0C942C4D64
:100310000C94D4570C9496360C944F550C942A7B1D
:100320000C94FA6F0C94F01E0C94AC1F0C94E253D6
:100330000C940E520C94AAEE0C9437EF0C94682592
:100340000C9449EE0C94C8440C9466500C94AB4049
:100350000C946E6A0C9445EF0C94D9360C94AE3F15
:100360000C94751F0C94001F0C947BEE0C94136678
:100370000C9402EF0C944E580C943F720C9447EE80
:100380000C9432B10C94A61F0C945E5A0C94867097
:100390000C94853E0C942FEE0C9449EF0C9447EF8F
:1003A0000C9442420C9426470C94306B0C945DEEF6
:1003B0000C94DC1E0C94C1380C94AE6D0C948438F3
:1003C0000C940FEF0C946A430C94E5350C94F93BB4
:1003D0000C94A21F0C9439EF0C942A710C94056DA7
:1003E0000C9495540C942E510C9403A30C94D1703E
:1003F0000C94AB370C941F490C9484250C9473EE29
:100400000C94F93A0C947E480C94F81E0C94EF3B33
:100410000C940B3F0C94791F0C946E220C94243E88
:100420000C9443EF0C94AD210C941A680C9465EE77
:100430000C94BC5A0C94AD6C0C94C93C0C94F55AB9
:100440000C9469EE0C9425EF0C941A390C94F35625
:100450000C94334F0C94EF540C9428350C942AEFE1
:100460000C946D590C94411F0C9495250C94B36316
:100470000C942C5A0C94F6670C94D71E0C9461754E
:100480000C94E1400C9476250C9403590C9433EFB2
:100490000C94C9480C949E700C940A1F0C94C2587A
:1004A0000C945BEE0C94DB420C9419690C94B23DF5
:1004B0000C9422250C94F6370C944B1F0C9414A327
:1004C0000C948A1F0C94493D0C947F1F0C944D454D
:1004D0000C94B41F0C94A6350C9442370C945936E6
:1004E0000C943D380C9487290C94393F0C94426944
:1004F0000C945F1F0C9432EE0C946A3F0C94371FDF
:100500000C94903F0C9473660C940F360C94302529
:100510000C9439360C943CEF0C9435EF0C94CE428D
:100520000C941A4D0C9466580C94CC3E0C94613B80
:100530000C94E61E0C94FE440C9425760C94A04F6B
:100540000C9467350C942D1F0C94A6730C945A25AB
:100550000C941E1F0C949E1F0C9457EE0C9459EE95
:100560000C94C0470C942FEF0C944C250C94821FD4
:100570000C947C690C94403C0C9475EE0C9483EEC6
:100580000C9420710C94DD754E414E494E495459DE
:10059000494E46CDCCCC3D0AD7233C17B7D138774E
:1005A000CC2B329595E6241FB14F0A000020410064
:1005B00000C84200401C4620BCBE4CCA1B0E5AAEAE
:1005C000C59D740000090A02080B0C0D0706030400
:1005D000010000000000000000000000000000001A
:1005E00000000000000000000000000000000011FA
:1005F000100F0000000000000000000000000000DC
:100600000000000000000000000102102020080887
:100610001020401020408002010201080402010164
:10062000020408102040808040201008040201804D
:1006300004020180402010080402010804020101A4
:1006400002040810204080010204081020408005A8
:10065000050505070508080808020202020A0A083B
:100660000804040404010101010101010103030361
:100670000303030303040707070C0C0C0C0C0C0CFE
:100680000C0202020206060606060606060B0B0B05
:100690000B0B0B0B0B00002200250028002B002E5B
:1006A000003100340002010000050108010B0100C7
:1006B000002100240027002A002D00300033000113
:1006C000010000040107010A015052494E54004D37
:1006D0004154455249414C004D41494E54454E41CB
:1006E0004E4345005072696E74696E672077697475
:1006F00068205553422E2E2E00756C74696D616B07
:1007000065722E636F6D2F4552303700476F20742E
:100710006F3A0058206F72205920737769746368AC
:1007200020737475636B00756C74696D616B6572B1
:100730002E636F6D2F4552303700476F20746F3A2C
:100740000058206F722059207377697463682062A3
:10075000726F6B656E00756C74696D616B65722E7E
:10076000636F6D2F4552303600476F20746F3A002B
:100770005A2073776974636820737475636B0075AE
:100780006C74696D616B65722E636F6D2F455230AD
:100790003500476F20746F3A005A2073776974638D
:1007A000682062726F6B656E00756C74696D616B49
:1007B00065722E636F6D2F4552303400476F207481
:1007C0006F3A005361666574792063697263756975
:1007D0007400756C74696D616B65722E636F6D2F3B
:1007E0004552303300476F20746F3A00486561749A
:1007F0006572206572726F7200756C74696D616BE1
:1008000065722E636F6D2F4552303200476F207432
:100810006F3A0054656D702073656E736F7220427D
:10082000454400756C74696D616B65722E636F6D04
:100830002F4552303100476F20746F3A0054656D78
:10084000702073656E736F72004552524F52202DA7
:100850002053544F5050454400496E76616C696492
:10086000206D6174657269616C2073657474696E62
:10087000677320666F756E642C207265736574747F
:10088000696E6720746F2064656661756C747300AF
:100890006563686F3A00801506060606FEFEFEFEDA
:1008A000FC00000000000000FCFEFEFEFC0000005A
:1008B0000EFEFEFEFE0000E0FCFEFEFCE0E000009E
:1008C00000CECECE000000C0C0C0C0C0C0800000BE
:1008D0000000000080C0C080000000000000808098
:1008E000C0C0C0C0C0C0C080800000000006FEFEC6
:1008F000FEFE0000000080C0C0C00000000000003C
:100900008080C0C0C080808000000000C0C0C0C027
:100910000080C0C0C0C08000000000007FFFFFFF5B
:10092000FF80000000000080FFFFFFFFFF000000CD
:1009300000FFFFFFFF000000FFFFFFFF00000000BF
:1009400000FFFFFF00000081F1FFFF3F0F3FFFFCB2
:10095000F0F0FCFF3F0F3FFFFEF880000000C1E118
:10096000F1F17131010183FFFFFFFC000000FFFF87
:10097000FFFF000C3EFFFFF7C301000000FCFEFF7D
:100980008703113131333F3F3F1E000001FFFFFF5E
:10099000FF0703010101010000000000000103073F
:1009A000070F0F0F0F0F0F0F0707070F0F0600009E
:1009B00000070F0F07000000070F0F0700000000DF
:1009C000000F0F0F0000060F0F07010000000107C6
:1009D0000F0F070100000001070F0F0600000307BB
:1009E0000F0F0E0E060703070F0F07000000070F7B
:1009F0000F0700000000030F0F0F060000000307A1
:100A0000070F0E0E0E0E0E0E06000000000F0F0F49
:100A10000F00000000000000507265763A2000438D
:100A2000414E43454C002073656300206D696E00A4
:100A300020686F75720020686F7572730000000087
:100A4000000000005F00000007000700147F147F13
:100A500014242A7F2A12231308646236495522502F
:100A60000005030000001C2241000041221C000878
:100A70002A1C2A0808083E08080050300000080810
:100A8000080808006060000020100804023E514978
:100A9000453E00427F400042615149462141454B5D
:100AA000311814127F1027454545393C4A494930D1
:100AB00001710905033649494936064949291E008D
:100AC0003636000000563600000008142241141487
:100AD0001414144122140800020151090632497904
:100AE000413E7E1111117E7F494949363E414141C7
:100AF000227F4141221C7F494949417F0909010167
:100B00003E414151327F0808087F00417F4100206B
:100B100040413F017F081422417F404040407F0216
:100B200004027F7F0408107F3E4141413E7F090956
:100B300009063E4151215E7F091929464649494926
:100B40003101017F01013F4040403F1F2040201FF5
:100B50007F2018207F631408146303047804036162
:100B60005149454300007F414102040810204141A2
:100B70007F000004020102044040404040000102A6
:100B8000040020545454787F484444383844444442
:100B900020384444487F3854545418087E090102D0
:100BA000081454543C7F0804047800447D4000201D
:100BB00040443D00007F10284400417F40007C04F9
:100BC0001804787C0804047838444444387C1414AD
:100BD0001408081414187C7C08040408485454545D
:100BE00020043F4440203C4040207C1C2040201CEE
:100BF0003C4030403C44281028440C5050503C4469
:100C000064544C44000836410000007F000000415D
:100C100036080008082A1C08081C2A080847312042
:100C2000462569205A2569205825692059256900DB
:100C3000473238205A3020583020593000627569C8
:100C40006C64706C6174652E006F662061646A75F7
:100C50007374696E6720796F7572007468726F754E
:100C60006768207468652070726F636573730049EC
:100C70002077696C6C20677569646520796F7500F1
:100C8000434F4E54494E55450043414E43454C0059
:100C9000473238205A3000746F207072696E7420A9
:100CA00069742100616E64207072657373207468CA
:100CB0006520627574746F6E006F6E2074686520B5
:100CC00053442D636172640053656C6563742061E5
:100CD000207072696E742066696C650032312F3243
:100CE00031004C45542753205052494E5400526510
:100CF0006164696E6720636172642E2E2E0032314A
:100D00002F323100796F757220556C74696D616B8B
:100D10006572322E2E2E00746861742063616D65D9
:100D2000207769746800506C6561736520696E7323
:100D30006572742053442D636172640032312F3226
:100D400031006D616B652061203344205072696E03
:100D500074210049276D207265616479206C657487
:100D600027730032302F32310041524520594F5500
:100D70002052454144593F0066726F6D206E6F7A74
:100D80007A6C652E2E2E006D6174657269616C201F
:100D90006578697473005075736820627574746F38
:100DA0006E207768656E0031392F323100434F4E27
:100DB00054494E5545004C6F6164696E67206D6102
:100DC00074657269616C2E2E2E0031382F3231001D
:100DD00061626F766520746865206172726F772E2C
:100DE00000796F757220556C74696D616B65723234
:100DF0002C0066726F6D20746865207265617220C8
:100E00006F6600496E73657274206E6577206D6140
:100E100074657269616C0031372F323100434F4E77
:100E200054494E5545006D6174657269616C206C62
:100E30006F6164696E67007072696E746865616481
:100E40002068656174696E6720666F7200506C651A
:100E500061736520776169742C0031362F3231005F
:100E600053656C65637420746865206D6174657288
:100E700069616C006974206973207573696E672EEF
:100E8000006F66206D6174657269616C006B6E6FD6
:100E900077732077686174206B696E64004E6F779A
:100EA00020796F757220556C74696D616B65723253
:100EB0000031352F323100434F4E54494E554500D5
:100EC000697320746869732072696768743F005998
:100ED0006F7520686176652063686F73656E003199
:100EE000342F323100594553004E4F00206173209A
:100EF0006D6174657269616C2C0031332F32310081
:100F00004D4154455249414C00556C74696D616BBB
:100F10006572322E00696E7365727420696E20747A
:100F2000686973006D6174657269616C20796F75B1
:100F30002077696C6C004E6578742C2073656C6545
:100F40006374207468650031322F3231005245419C
:100F50004459004D3834004731204631323030306A
:100F600020583131302059313000746F20696E7350
:100F7000657274206D6174657269616C2E007468AD
:100F800065206E65787420737465702069730074D1
:100F90006865206275696C64706C617465004E6F81
:100FA000772074686174207765206C6576656C6560
:100FB000640031312F323100434F4E54494E554574
:100FC0000074686520726967687420636F726E656B
:100FD000722E2E2E005265706561742074686973DC
:100FE00020666F720031302F323100434F4E54492A
:100FF0004E554500444F4E4500746865206C65664B
:101000007420636F726E65722E2E2E0052657065AD
:101010006174207468697320666F7200392F3231F1
:1010200000434F4E54494E55450062697420726525
:1010300073697374616E63652E00756E74696C20DC
:10104000796F75206665656C2061006275696C64F6
:10105000706C61746520616E64206E6F7A7A6C6565
:1010600000536C6964652061207061706572206254
:1010700065747765656E00382F323100434F4E54EA
:10108000494E554500434F4E54494E554500473152
:1010900020462569205A30004731204625692058CE
:1010A00025692059256900473120462569205A3590
:1010B00000746865206275696C64706C6174652089
:1010C0006C6576656C2E00706170657220746F209F
:1010D00066696E652D74756E65006E6F7720757329
:1010E000652061207368656574206F6600526570C5
:1010F000656174207468697320737465702C206254
:10110000757400372F323100434F4E54494E5545C8
:101110000066726F6D20746865206275696C64701A
:101120006C6174652E0069732061206D696C6C6957
:101130006D6574657220617761790073637265779C
:101140002074696C6C20746865206E6F7A7A6C65A7
:10115000005475726E207269676874206275696CDC
:1011600064706C61746500362F323100434F4E5409
:10117000494E554500473120462569205A300047E1
:1011800031204625692058256920592569004731B5
:1011900020462569205A350066726F6D2074686597
:1011A000206275696C64706C6174652E00697320CF
:1011B00061206D696C6C696D657465722061776121
:1011C000790073637265772074696C6C207468654C
:1011D000206E6F7A7A6C65005475726E206C65664D
:1011E00074206275696C64706C61746500352F32AF
:1011F0003100434F4E54494E554500473120462556
:1012000069205A3000473120462569205825692039
:1012100059256900473120462569205A35006672F4
:101220006F6D20746865206275696C64706C6174A0
:10123000652E0061206D696C6C696D657465722046
:101240006177617900756E74696C20746865206ED1
:101250006F7A7A6C6520697300526F7461746520CF
:1012600074686520627574746F6E00342F323100BB
:10127000434F4E54494E554500434F4E54494E55E9
:101280004500473120462569205A2569205825699F
:1012900020592569004732382058302059300067DE
:1012A0006F696E6720746F20646F207468617420AA
:1012B0006E6F772E0061646A7573746D656E7473FA
:1012C0002C20776520617265007765206E65656406
:1012D00020746F20646F20736F6D650041667465C4
:1012E00072207472616E73706F72746174696F6E64
:1012F00000332F323100434F4E54494E554500477D
:101300003120462569205A256900473238205A3055
:1013100000612066697273742072756E2077697A35
:101320006172642E0077616C6B20796F7520746830
:10133000726F756768006669727374207374617286
:1013400074757020492077696C6C00426563617523
:10135000736520746869732069732074686500324E
:101360002F323100434F4E54494E5545006275743B
:10137000746F6E20746F20636F6E74696E75650094
:10138000556C74696D616B65722120507265737361
:10139000207468650073746172747570206F6620C4
:1013A000796F75720057656C636F6D6520746F207F
:1013B00074686520666972737400312F323100439E
:1013C0004F4E54494E5545004300432F00436C692E
:1013D000636B20746F2072657475726E004275695C
:1013E0006C64706C6174652074656D702E3A003F9A
:1013F0003F3F00466163746F727920726573657454
:101400000052756E74696D65207374617473005653
:10141000657273696F6E004D6F74696F6E207365CE
:101420007474696E6773005365742066616E20730F
:1014300070656564004D6F7665206D6174657269D5
:10144000616C00496E73657274206D6174657269B8
:10145000616C005261697365206275696C64706CBF
:10146000617465004C6F776572206275696C647099
:101470006C61746500486F6D652068656164004843
:101480006561747570206275696C64706C617465F7
:1014900000486561747570206E6F7A7A6C65004CD7
:1014A00045442073657474696E6773003C2052452F
:1014B0005455524E0056657273696F6E20444556FE
:1014C0000025004300432F004300432F0025003F29
:1014D0003F3F0020476C6F77207768656E20646F10
:1014E0006E6500204F6E207768696C6520707269A8
:1014F0006E74696E670020416C77617973204F6666
:10150000660020416C77617973204F6E00427269EA
:101510006768746E657373003C2052455455524E93
:1015200000250025004272696768746E6573730058
:101530004C4544004300432F00436C69636B2074A7
:101540006F2072657475726E004E6F7A7A6C6520CA
:1015500074656D70657261747572653A00473238F2
:10156000205830205930004300432F00436C6963FA
:101570006B20746F2072657475726E00526F7461A7
:10158000746520746F2065787472756465004E6FA1
:101590007A7A6C652074656D7065726174757265B8
:1015A0003A003F3F3F0043757272656E74204500FC
:1015B00043757272656E74205A0043757272656E5F
:1015C0007420582F59004D61782073706565642030
:1015D0005A004D61782073706565642059004D6133
:1015E00078207370656564205800582F59204A652B
:1015F000726B00416363656C65726174696F6E0044
:101600003C2052455455524E006D41006D41006DD5
:1016100041006D6D2F736563006D6D2F7365630001
:101620006D6D2F736563006D6D2F736563006D6D58
:101630002F7365635E32006D410043757272656E93
:10164000742045006D410043757272656E74205AB6
:10165000006D410043757272656E7420582F5900F9
:101660006D6D2F736563004D6178207370656564DF
:10167000205A006D6D2F736563004D617820737083
:101680006565642059006D6D2F736563004D617849
:101690002073706565642058006D6D2F736563005D
:1016A000582F59204A65726B0030306D6D2F73656D
:1016B000635E3200416363656C65726174696F6E6D
:1016C000004D4F54494F4E0056657273696F6E203E
:1016D000444556004F637420203720323031382083
:1016E00032323A32383A34320052455455524E0072
:1016F0006D00204D61743A003A005072696E746951
:101700006E673A003A004D616368696E65206F6EDE
:1017100020666F723A0052455455524E00746F2045
:1017200064656661756C743F00526573657420650D
:10173000766572797468696E6700594553004E4F3B
:1017400000250046616E2073706565640047312096
:1017500046256920582569205925690047323820D7
:1017600058205900473120462569205A3430004717
:101770003238205A004D383400473238205A004D54
:101780003834004732382058205900473238205A20
:1017900000414456414E434544004255494C442D76
:1017A0007C504C41544500414456414E4345440011
:1017B00052455455524E004350450041425300504B
:1017C0004C410054504C4100505000545055203969
:1017D0003541004350452B004E796C6F6E005043ED
:1017E000004350450041425300504C41006C63643B
:1017F0005F6D6174657269616C5F72657365745F5A
:1018000064656661756C747300250046616E3A20EC
:1018100000430043002500466C6F773A006D6D0071
:10182000636F6D6573206F757420746865206E6FCB
:101830007A7A6C6500576169742074696C6C206DEC
:101840006174657269616C005245414459004341BD
:101850004E43454C00466F7277617264696E672033
:101860006D6174657269616C0061626F7665207488
:101870006865206172726F772E00796F7572206DC6
:10188000616368696E652C0066726F6D20746865AF
:10189000206261636B73696465206F6600496E73D3
:1018A000657274206E6577206D6174657269616C14
:1018B0000052454144590043414E43454C006D613F
:1018C00074657269616C20696E73657274696F6E9C
:1018D00000436F6F6C696E67207072696E74686523
:1018E000616420666F720048656174696E6720707C
:1018F00072696E746865616420666F72004D415450
:10190000455249414C0052656D6F7665206D61749A
:10191000657269616C0052454144590043414E4330
:10192000454C00526576657273696E67206D61740F
:10193000657269616C00666F72206D6174657269B1
:10194000616C2072656D6F76616C004865617469C9
:101950006E67207072696E74686561640047323822
:1019600020583020593000496D706F7274206672B3
:101970006F6D205344004578706F727420746F202F
:10198000534400437573746F6D697A65003C20524F
:10199000455455524E004C6F61647320616C6C204D
:1019A0006D6174657269616C730053617665732053
:1019B000616C6C206D6174657269616C73004D6F50
:1019C00064696679207468652073657474696E67EC
:1019D0007300250046616E3A200043004300250055
:1019E000466C6F773A006D6D003F3F3F0053746F58
:1019F000726520617320707265736574005265743E
:101A000072616374696F6E00466C6F7720250046C3
:101A1000616E004469616D6574657200486561744A
:101A20006564206275696C64706C617465005465EE
:101A30006D7065726174757265003C205245545535
:101A4000524E00250025006D6D00430043200043E9
:101A5000200054656D70657261747572653A20007E
:101A60003C2052455455524E004300430054656D8E
:101A70007065726174757265004D415445524941FB
:101A80004C0052657472616374696F6E3A20003C59
:101A90002052455455524E006D6D2F73006D6D20D0
:101AA000003F3F3F0052657472616374207370653C
:101AB00065640052657472616374206C656E67744E
:101AC00068003C2052455455524E006D6D2F736591
:101AD00063006D6D006D6D2F7365630052657472E8
:101AE000616374207370656564006D6D0052657488
:101AF00072616374206C656E67746800524554525D
:101B0000414354494F4E004D4154455249414C00C8
:101B10004E657720707265736574003C20524554A1
:101B200055524E00505245534554530025004D61C7
:101B300074657269616C20666C6F77002500466180
:101B40006E207370656564006D6D004D6174657223
:101B500069616C204469616D65746572004300427F
:101B600075696C64706C6174652054656D702E00CD
:101B70004D4154455249414C00696E204D415445F8
:101B80005249414C2E54585400746F20746865209B
:101B900053442063617264005361766564206D6113
:101BA00074657269616C73004F4B000A006469616F
:101BB0006D657465723D000A00666C6F773D000AC2
:101BC0000066616E5F73706565643D000A00626562
:101BD000645F74656D70657261747572653D000A4D
:101BE000003D0072657472616374696F6E5F73703B
:101BF0006565645F000A003D00726574726163741C
:101C0000696F6E5F6C656E6774685F000A003D0007
:101C100074656D70657261747572655F000A007439
:101C2000656D70657261747572653D000A006E6164
:101C30006D653D005B6D6174657269616C5D0A0084
:101C400052656164696E6720636172642E2E2E0096
:101C5000506C6561736520696E7365727420636191
:101C60007264004E6F2053442D434152442100665C
:101C7000726F6D2074686520534420636172640044
:101C80006D6174657269616C206C6F61640045728E
:101C9000726F7220647572696E670066726F6D2074
:101CA0007468652053442063617264004C6F616402
:101CB0006564206D6174657269616C73004F4B00DF
:101CC000686173496E76616C6964526574726163B0
:101CD00074696F6E537065656420666F756E6420FD
:101CE00070726F626C656D007265747261637469A5
:101CF0006F6E5F73706565645F00686173496E76CF
:101D0000616C696452657472616374696F6E4C656D
:101D10006E67746820666F756E642070726F626C97
:101D2000656D0072657472616374696F6E5F6C6576
:101D30006E6774685F00686173496E76616C696490
:101D40004E6F7A7A6C6554656D70657261747572E8
:101D50006520666F756E642070726F626C656D00D1
:101D600074656D70657261747572655F006861732A
:101D7000496E76616C69644469616D657465722051
:101D8000666F756E642070726F626C656D00646959
:101D9000616D6574657200686173496E76616C6926
:101DA000644D6174657269616C466C6F7720666F13
:101DB000756E642070726F626C656D00666C6F7713
:101DC00000686173496E76616C696446616E537038
:101DD00065656420666F756E642070726F626C65F5
:101DE0006D0066616E5F737065656400686173495C
:101DF0006E76616C696442656454656D706572618C
:101E00007475726520666F756E642070726F626C97
:101E1000656D006265645F74656D7065726174758F
:101E2000726500686173496E76616C69644E6F7AA1
:101E30007A6C6554656D7065726174757265206643
:101E40006F756E642070726F626C656D0074656D85
:101E5000706572617475726500416464696E6720B3
:101E60006D6174657269616C20006E616D65005B07
:101E70006D6174657269616C5D0053746172742088
:101E800072656164206D6174657269616C7300666E
:101E90006F756E64206F6E20636172642E004E6FEA
:101EA000206D6174657269616C2066696C650052B1
:101EB000656164696E6720636172642E2E2E005026
:101EC0006C6561736520696E7365727420636172FD
:101ED00064004E6F2053442D43415244210053650A
:101EE0006C6563746564206D6174657269616C3AD8
:101EF000004F4B004D4154455249414C0047312061
:101F0000462569205825692059256900473238201F
:101F10005830205930004348414E474500534554FE
:101F200054494E47530052455455524E006563681C
:101F30006F3A004572726F723A004300432F0043BC
:101F40006C69636B20746F2072657475726E004EDD
:101F50006F7A7A6C652074656D70657261747572E4
:101F6000653A00507265706172696E6720746F2007
:101F70007072696E743A0048656174696E672075A5
:101F8000702E2E2E0054554E450041424F525400A3
:101F90002573207673202573006D61746572696105
:101FA0006C2E00666F7220612064696666657265DA
:101FB0006E7400546869732066696C6520697320CB
:101FC0006372656174656400434F4E54494E5545D4
:101FD0000043414E43454C004C45442042726967E2
:101FE00068746E6573730052657472616374696FAF
:101FF0006E004D6174657269616C20666C6F77006C
:1020000046616E207370656564004275696C64702A
:102010006C6174652074656D702E0054656D70651B
:102020007261747572650053706565640041626F1A
:102030007274003C2052455455524E002500250034
:1020400025004300430043004300250041626F72B6
:102050007420746865207072696E743F005945532E
:10206000004E4F003F3F3F00526574726163742021
:1020700073706565640052657472616374206C6589
:102080006E677468003C2052455455524E006D6D89
:102090002F736563006D6D006D6D2F736563005266
:1020A000657472616374207370656564006D6D00A2
:1020B00052657472616374206C656E677468005257
:1020C000455452414354494F4E00250042726967BE
:1020D00068746E6573730025004D61746572696183
:1020E0006C20666C6F7700250046616E207370650A
:1020F00065640025005072696E74207370656564B4
:102100000054554E450054696D65206C6566740039
:1021100054696D65206C65667420756E6B6E6F77A3
:102120006E004300430048656174696E6720627504
:10213000696C64706C6174650043004300486561BC
:1021400074696E67005072696E74696E673A005404
:10215000554E4500504155534500524553554D4548
:102160007C5052494E54004348414E47457C4D41B6
:1021700054455249414C0054554E45004D383400A9
:1021800047323800473238205A300047323820581A
:10219000302059300047312046256920453000471E
:1021A000393220452569004D343031004D3630310B
:1021B000205835205935205A2569204C256900744E
:1021C0006865207072696E742E00596F75206361A6
:1021D0006E2072656D6F7665005072696E74206650
:1021E000696E6973686564004241434B20544F2017
:1021F0004D454E550043004320005072696E746592
:102200007220636F6F6C696E6720646F776E004237
:1022100041434B20544F204D454E55006F66207072
:1022200072696E74696E67206172656100547269CB
:102230006564207072696E74696E67206F757400D2
:102240004552524F523A0052455455524E20544F27
:10225000204D41494E00756C74696D616B65722E3D
:10226000636F6D2F4552303800476F20746F3A000E
:1022700072656164696E672053442D6361726421E5
:10228000004572726F72207768696C650052455420
:1022900055524E20544F204D41494E0066726F6D8D
:1022A0002074686520736C696365722E00736574B1
:1022B00074696E6720776974682073657474696ED9
:1022C00067006F76657272696465206D6163686925
:1022D0006E6500546869732066696C652077696C67
:1022E0006C00434F4E54494E55450043414E4345C3
:1022F0004C003C204241434B003C20524554555237
:102300004E0053442043415244004731204631326D
:102310003030302058352059313000473238003BBA
:10232000464C41564F523A556C746947436F646549
:10233000003B464C41564F523A556C746947436FC7
:102340006465004E6F2066696C657320666F756EFC
:102350006421004F4B004F4B0052656164696E670A
:1023600020636172642E2E2E00506C6561736520AF
:10237000696E736572742063617264004E6F2053DE
:10238000442D4341524421004E6F20696E666F20F8
:10239000617661696C61626C65004E6F7A7A6C651A
:1023A0003A20006D006D004D6174657269616C3A90
:1023B000200054696D653A20003B4D545950453A10
:1023C000003B4E4F5A5A4C455F4449414D45544598
:1023D000523A003B4D4154455249414C3A003B541E
:1023E000494D453A00466F6C646572005072696EE3
:1023F0007465722073746F707065642064756520F5
:10240000746F206572726F72732E20466978207423
:102410006865206572726F7220616E6420757365E5
:10242000204D39393920746F20726573746172746C
:102430002E202854656D706572617475726520690F
:10244000732072657365742E20536574206974203F
:1024500061667465722072657374617274696E6707
:1024600029005072696E7465722068616C746564CD
:102470002E206B696C6C28292063616C6C6564216B
:10248000004D32313820496E76616C696420657880
:1024900074727564657220004D31303920496E7652
:1024A000616C696420657874727564657220004D92
:1024B00031303520496E76616C69642065787472BC
:1024C0007564657220004D31303420496E76616C40
:1024D00069642065787472756465722000456E6465
:1024E00073746F70207374696C6C20707265737391
:1024F0006564206166746572206261636B696E67F2
:10250000206F66662E20456E6473746F702073743E
:1025100075636B3F00456E6473746F70206E6F74EB
:1025200020707265737365642061667465722068DB
:102530006F6D696E6720646F776E2E20456E6473D1
:10254000746F702062726F6B656E3F00456E6473CE
:10255000746F70206E6F7420707265737365642081
:10256000616674657220686F6D696E6720646F774D
:102570006E2E20456E6473746F702062726F6B658F
:102580006E3F002200556E6B6E6F776E20636F6D2D
:102590006D616E643A202200456C656374726F6EE3
:1025A0006963735F74657374004163746976652051
:1025B00045787472756465723A2000496E76616C74
:1025C00069642065787472756465720054002042F5
:1025D0003A300020423A31006F6B20523A002063BB
:1025E0003A0020643A0020693A0020703A006F6B8C
:1025F000002200556E6B6E6F776E20636F6D6D619C
:102600006E643A2022006F70656E0054524947474D
:1026100045524544007A5F6D61783A20006F7065DD
:102620006E0054524947474552454400795F6D61F9
:10263000783A20006F70656E005452494747455202
:10264000454400785F6D696E3A20005265706F7284
:1026500074696E6720656E6473746F702073746143
:10266000747573004649524D574152455F4E414D76
:10267000453A4D61726C696E20556C74696D616B81
:102680006572323B20537072696E7465722F677287
:10269000626C206D617368757020666F722067656B
:1026A0006E36204649524D574152455F55524C3A7D
:1026B000687474703A2F2F6769746875622E636F3F
:1026C0006D2F556C74696D616B65722050524F545B
:1026D0004F434F4C5F56455253494F4E3A312E307F
:1026E000204D414348494E455F545950453A556C39
:1026F00074696D616B65722045585452554445525A
:102700005F434F554E543A310A005A3A00593A0045
:1027100020436F756E7420583A2000453A005A3AAB
:1027200000593A00583A0020423A0020453A0054F5
:102730003A003F0020573A0020453A00543A002022
:1027400042403A0020403A00202F0020423A002028
:102750002F006F6B20543A002569206D696E2C2084
:1027600025692073656300456E642066696C652089
:102770006C69737400426567696E2066696C6520D8
:102780006C697374006F6B00526573656E643A20F8
:1027900000256920686F757273202569206D696E48
:1027A0007574657300446F6E65207072696E74692C
:1027B0006E672066696C65005072696E7465722080
:1027C00073746F707065642064756520746F206524
:1027D00072726F72732E2046697820746865206566
:1027E00072726F7220616E6420757365204D393985
:1027F0003920746F20726573746172742E202854AE
:10280000656D70657261747572652069732072659B
:102810007365742E20536574206974206166746535
:10282000722072657374617274696E6729006F6BD0
:10283000004E6F204C696E65204E756D626572208A
:102840007769746820636865636B73756D2C204CC1
:10285000617374204C696E653A20004E6F204368A6
:1028600065636B73756D2077697468206C696E653C
:10287000206E756D6265722C204C617374204C69FA
:102880006E653A2000636865636B73756D206D69D2
:10289000736D617463682C204C617374204C696E95
:1028A000653A20004C696E65204E756D6265722038
:1028B0006973206E6F74204C617374204C696E656F
:1028C000204E756D6265722B312C204C6173742023
:1028D0004C696E653A20004D31313000446F6E65B1
:1028E00020736176696E672066696C652E006F6B78
:1028F000004D3239002020506C616E6E6572427559
:102900006666657242797465733A20002046726586
:1029100065204D656D6F72793A20004F63742020F9
:1029200037203230313800436F6D70696C65643A1E
:10293000200056657273696F6E2044455600207CF6
:1029400020417574686F723A20004F6374202037FD
:1029500020323031382032323A32383A34330020A3
:102960004C61737420557064617465643A20003161
:102970002E302E30004D61726C696E200020536F36
:1029800066747761726520526573657400205761C3
:10299000746368646F6720526573657400204272C7
:1029A0006F776E206F7574205265736574002045D3
:1029B000787465726E616C20526573657400506F37
:1029C0007765725570007374617274002200656ED1
:1029D000717565696E672022002200656E717565EC
:1029E000696E67202200FF01010000E0400000E066
:1029F000400000E04000006643008060430000614A
:102A00004300000000008060430000614300006656
:102A100043008060430000614300000000000000AC
:102A200000000000006563686F3A004572726F72C3
:102A30003A0000002110422063308440A550C66057
:102A4000E770088129914AA16BB18CC1ADD1CEE16B
:102A5000EFF13112100273325222B5529442F772E2
:102A6000D662399318837BB35AA3BDD39CC3FFF3BB
:102A7000DEE36224433420040114E664C774A444F2
:102A800085546AA54BB528850995EEE5CFF5ACC50B
:102A90008DD55336722611163006D776F6669556C2
:102AA000B4465BB77AA719973887DFF7FEE79DD75B
:102AB000BCC7C448E5588668A77840086118022852
:102AC0002338CCC9EDD98EE9AFF9488969990AA9AB
:102AD0002BB9F55AD44AB77A966A711A500A333A22
:102AE000122AFDDBDCCBBFFB9EEB799B588B3BBBFB
:102AF0001AABA66C877CE44CC55C222C033C600CB2
:102B0000411CAEED8FFDECCDCDDD2AAD0BBD688D4A
:102B1000499D977EB66ED55EF44E133E322E511E01
:102B2000700E9FFFBEEFDDDFFCCF1BBF3AAF599F9A
:102B3000788F8891A981CAB1EBA10CD12DC14EF13A
:102B40006FE18010A100C230E320045025404670A0
:102B50006760B9839893FBA3DAB33DC31CD37FE3CB
:102B60005EF3B1029012F322D232354214527762F0
:102B70005672EAB5CBA5A89589856EF54FE52CD59B
:102B80000DC5E234C324A014810466744764245440
:102B90000544DBA7FAB79987B8975FE77EF71DC7AB
:102BA0003CD7D326F2369106B01657667676154690
:102BB00034564CD96DC90EF92FE9C899E9898AB9FB
:102BC000ABA94458654806782768C018E1088238E0
:102BD000A3287DCB5CDB3FEB1EFBF98BD89BBBAB0B
:102BE0009ABB754A545A376A167AF10AD01AB32A30
:102BF000923A2EFD0FED6CDD4DCDAABD8BADE89D5B
:102C0000C98D267C076C645C454CA23C832CE01C7F
:102C1000C10C1FEF3EFF5DCF7CDF9BAFBABFD98FEA
:102C2000F89F176E367E554E745E932EB23ED10ECF
:102C3000F01E7C3C3E5E2B3D3F2F5B5D3B2C2A22F1
:102C40005C0020746F6F206C6F6E67206578747203
:102C50007573696F6E2070726576656E7465640059
:102C600020636F6C6420657874727573696F6E2071
:102C700070726576656E746564006563686F3A00AE
:102C8000205A3A0020593A0020583A00656E647381
:102C9000746F7073206869743A200024F4D4305043
:102CA000C38E20C2A24017828B7011127A910D81BF
:102CB0006CD90AA861E108C7586607615143061E2E
:102CC0004B5D05C145A7041A411104093D980371E4
:102CD0003931034036DB0265339102D4305402802F
:102CE0002E1D02632CEE01752AC501B028A001102B
:102CF0002781018F2564012B244B01E0223401AC94
:102D0000211F018D200D01801FFC00841EED009706
:102D10001DDF00B81CD200E61BC600201BBC0064EF
:102D20001AB200B219A8000A19A0006A189900D1B5
:102D300017910040178B00B516840031167E00B342
:102D40001579003A157300C7146F0058146A00EE25
:102D50001366008813630025135E00C7125B006CC6
:102D600012570015125400C111510070114F00216B
:102D7000114B00D61049008D104700461044000248
:102D8000104200C00F4000800F3E00420F3C000682
:102D90000F3B00CB0E3800930E37005C0E3500273A
:102DA0000E3400F30D3200C10D3100900D30006083
:102DB0000D2E00320D2D00050D2C00D90C2B00AE70
:102DC0000C2900850C29005C0C2700350C27000E0F
:102DD0000C2600E80B2400C40B2400A00B23007D6C
:102DE0000B23005A0B2100390B2100180B2000F88F
:102DF0000A1F00D90A1E00BB0A1E009D0A1D008082
:102E00000A1D00630A1C00470A1B002C0A1B001144
:102E10000A1A00F7091A00DD091900C4091900ABE4
:102E2000091900920917007B091800630917004C63
:102E300009160036091600200916000A091500F5C2
:102E4000081500E0081400CC081400B8081400A409
:102E5000081400900813007D0812006B0813005836
:102E6000081200460812003408110023081100124D
:102E700008110001081100F0071000E0071000D051
:102E8000071000C0071000B0070F00A10710009145
:102E9000070E0083070F0074070F0065070E005729
:102EA000070E0049070E003B070D002E070E0020FD
:102EB000070D0013070D0006070D00F9060C00EDC5
:102EC000060D00E0060C00D4060C00C8060C00BC81
:102ED000060C00B0060C00A4060B0099060C008D31
:102EE000060B0082060B0077060B006C060B0061D8
:102EF000060A0057060B004C060A0042060A003874
:102F0000060A002E060A0024060A001A060A001005
:102F100006090007060A00FD050900F4050900EB93
:102F2000050900E2050900D9050900D0050900C717
:102F3000050900BE050900B5050800AD050800A596
:102F40000509009C050800940508008C050800840C
:102F50000508007C050800740508006C050700657D
:102F60000508005D050700560508004E05070047E7
:102F70000507004005080038050700310507002A4D
:102F8000050700230507001C050600160507000FAE
:102F90000507000805060002050700FB040600F50A
:102FA000040700EE040600E8040600E2040700DB64
:102FB000040600D5040600CF040600C9040600C3B9
:102FC000040600BD040600B7040600B1040500AC09
:102FD000040600A6040600A00405009B0406009554
:102FE000040500900406008A04050085040500809D
:102FF0000406007A04050075040500700405006BE2
:1030000004050066040500610405005C0405005722
:10301000040500520405004D040500480405004362
:103020000405003E0404003A0405003504050030A0
:103030000404002C04050027040400230405001EDA
:103040000404001A04040016040500110404000D11
:10305000040400090405000404040000040400FC46
:10306000030400F8030400F4030400F0030400EC7C
:10307000030400E8030400E4030400E0030400DCAC
:10308000030400D8030400D4030400D0030400CCDC
:10309000030400C8030300C503030024F404D9207B
:1030A0001BC40C5C0E9804C4095F0265077101F42F
:1030B00005F900FB04B30048048700C10369005808
:1030C00003550003034500BE023A00840231005359
:1030D000022A002902250004022000E4011C00C885
:1030E000011900AF01170098011400840113007149
:1030F0000110006101100051010E0043010D003666
:10310000010B002B010B0020010B00150109000C25
:1031100001090003010800FB000800F3000800EBB0
:10312000000700E4000600DE000600D8000600D21A
:10313000000600CC000500C7000500C2000500BD68
:10314000000400B9000400B5000400B1000400ADA3
:10315000000400A9000400A5000300A20003009FD2
:103160000004009B000300980003009500020093F8
:10317000000300900003008D0002008B0003008814
:103180000002008600020084000300810002007F2C
:103190000002007D0002007B00020079000200773F
:1031A000000100760002007400020072000100714C
:1031B0000002006F0002006D0001006C0002006A56
:1031C000000100690002006700010066000100655F
:1031D0000001006400020062000100610001006063
:1031E0000001005F0002005D0001005C0001005B67
:1031F0000001005A00010059000100580001005769
:103200000001005600010055000100540001005368
:103210000000005300010052000100510001005065
:103220000001004F0001004E0000004E0001004D63
:103230000001004C0001004B0000004B0001004A5F
:10324000000100490001004800000048000100475B
:103250000001004600000046000100450000004556
:10326000000100440001004300000043000100424F
:103270000000004200010041000000410001004048
:103280000001003F0000003F0001003E0000003E42
:103290000001003D0000003D0001003C0000003C3A
:1032A0000000003C0001003B0000003B0001003A30
:1032B0000000003A00010039000000390001003828
:1032C000000000380000003800010037000000371F
:1032D0000001003600000036000000360001003515
:1032E000000000350000003500010034000000340B
:1032F0000000003400010033000000330000003300
:1033000000010032000000320000003200010031F4
:1033100000000031000000310001003000000030EA
:10332000000000300001002F0000002F0000002FDF
:103330000000002F0001002E0000002E0000002ED3
:103340000001002D0000002D0000002D0000002DC8
:103350000001002C0000002C0000002C0000002CBC
:103360000001002B0000002B0000002B0000002BB0
:103370000001002A0000002A0000002A0000002AA4
:103380000001002900000029000000290000002998
:10339000000000290001002800000028000000288B
:1033A000000000280000002800010027000000277E
:1033B0000000002700000027000000270001002671
:1033C0000000002600000026000000260000002665
:1033D0000001002500000025000000250000002558
:1033E000000000250000002500010024000000244A
:1033F000000000240000002400000024000100233D
:103400000000002300000023000000230000002330
:103410000000002300000023000100220000002221
:103420000000002200000022000000220000002214
:103430000001002100000021000000210000002107
:1034400000000021000000210000002100010020F8
:1034500000000020000000200000002000000020EC
:103460000000002000000020000000200001001FDC
:103470000000001F0000001F0000001F0000001FD0
:103480000000001F0000001F0001001E0000001EC1
:103490000000001E0000001E0000006563686F3A17
:1034A000003A204578747275646572207377697488
:1034B00063686564206F66662E204D494E54454D05
:1034C00050207472696767657265642021003A2034
:1034D0004578747275646572207377697463686582
:1034E00064206F66662E204D415854454D5020741F
:1034F000726967676572656420210054656D706547
:1035000072617475726520686561746564206265B6
:1035100064207377697463686564206F66662E2023
:103520004D415854454D5020747269676765726506
:103530006420212100202D20496E76616C69642071
:103540006578747275646572206E756D626572203F
:103550002100504944204175746F74756E65206672
:10356000696E69736865642120507574207468659C
:10357000204B702C204B6920616E64204B642063CB
:103580006F6E7374616E747320696E746F20436F15
:103590006E66696775726174696F6E2E6800504956
:1035A00044204175746F74756E65206661696C6541
:1035B00064212074696D656F75740020403A006F56
:1035C0006B20543A006F6B20423A0050494420412E
:1035D00075746F74756E65206661696C6564212011
:1035E00054656D706572617475726520746F6F20BB
:1035F0006869676800204B643A2000204B693A20D4
:1036000000204B703A200020436C61737369632083
:1036100050494420002054753A2000204B753A2030
:1036200000206D61783A2000206D696E3A200020FC
:10363000643A200020626961733A200050494420B6
:103640004175746F74756E65207374617274005087
:103650004944204175746F74756E65206661696CAC
:1036600065642E20426164206578747275646572A9
:10367000206E756D6265722E004572726F723A002F
:103680000000000018070100A807140030082800F7
:10369000B8083C0038095000C0096400480A7800A6
:1036A000C80A8C00480BA000C80BB400480CC80026
:1036B000C80CDC00400DF000C00D0401380E1801EC
:1036C000B00E2C01280F4001A00F54011810680102
:1036D00088107C01001190013013F4014815580244
:1036E0004017BC0228192003F01A8403A81CE80321
:1036F000401E4C044D383420582059205A20450093
:1037000043616E6E6F7420656E74657220737562AE
:103710006469723A20004D3234004D3233202573F3
:10372000006175746F25692E67006572726F722073
:1037300077726974696E6720746F2066696C6500C2
:1037400043617264206572726F723A004E6F74202A
:103750005344207072696E74696E67002F00534481
:10376000207072696E74696E6720627974652000DA
:103770002E0044656C6574696F6E206661696C65C6
:10378000642C2046696C653A200046696C652064AB
:10379000656C657465643A002E006F70656E206616
:1037A00061696C65642C2046696C653A200057722B
:1037B0006974696E6720746F2066696C653A2000D1
:1037C0002E006F70656E206661696C65642C204602
:1037D000696C653A20002E006F70656E2066616925
:1037E0006C65642C2046696C653A200046696C65FE
:1037F0002073656C6563746564002053697A653A6B
:10380000200046696C65206F70656E65643A200023
:103810002E006F70656E206661696C65642C2046B1
:10382000696C653A200053442063617264206F6BB9
:10383000006F70656E526F6F74206661696C6564AD
:1038400000766F6C756D652E696E697420666169AE
:103850006C656400534420696E6974206661696C0C
:103860000043616E6E6F74206F70656E20737562B9
:10387000646972006563686F3A004572726F723AEC
:103880000048617264636F646564204465666175B5
:103890006C742053657474696E6773204C6F616437
:1038A000656400563031300053746F726564207364
:1038B000657474696E677320726574726965766584
:1038C00064002044002049002020204D3330312066
:1038D00050005049442073657474696E67733A00F0
:1038E000205A0020590020204D3230362058004800
:1038F0006F6D65206F666673657420286D6D293A5B
:1039000000204500205A002058002042002054008A
:1039100020204D323035205300416476616E63655E
:1039200064207661726961626C65733A20533D4D23
:10393000696E20666565647261746520286D6D2FFF
:1039400073292C20543D4D696E2074726176656C2C
:1039500020666565647261746520286D6D2F73291A
:103960002C20423D6D696E696D756D207365676DC4
:10397000656E742074696D6520286D73292C20583C
:103980003D6D6178696D756D205859206A65726B5F
:1039900020286D6D2F73292C20205A3D6D61786988
:1039A0006D756D205A206A65726B20286D6D2F73BE
:1039B000292C2020453D6D6178696D756D2045206D
:1039C0006A65726B20286D6D2F73290020540020CA
:1039D000204D323034205300416363656C65726161
:1039E00074696F6E3A20533D616363656C65726103
:1039F00074696F6E2C20543D72657472616374201B
:103A0000616363656C65726174696F6E0020450067
:103A1000205A0020590020204D3230312058004DCE
:103A20006178696D756D20416363656C6572617461
:103A3000696F6E20286D6D2F7332293A0020450082
:103A4000205A0020590020204D3230332058004D9C
:103A50006178696D756D2066656564726174657302
:103A600020286D6D2F73293A00204500205A002030
:103A7000590020204D39322058005374657073204E
:103A800070657220756E69743A0053657474696E5E
:103A900067732053746F726564006563686F3A00E2
:103AA000544553540D0A000D0A00556E6B6E6F7726
:103AB0006E20636F6D6D616E643A20000D0A003FE9
:103AC0000056657273696F6E20444556000203A369
:103AD00014A311241FBECFEFD1E2DEBFCDBF00E0A3
:103AE0000CBF13E0A0E0B2E0E8E3FAEF01E00BBFA7
:103AF00002C007900D92AA32B107D9F729E1AAE2D4
:103B0000B3E001C01D92A83EB207E1F71DE1C8E68F
:103B1000DDE100E006C021970109802FFE010E942F
:103B20008AF5C736D10780E00807A9F70E942EF072
:103B30000C940AFD0C9400001F920F920FB60F9286
:103B400011242F933F938F939F93AF93BF938091B3
:103B50002B0390912C03A0912D03B0912E03309153
:103B60002A0323E0230F2D3720F40196A11DB11D58
:103B700005C026E8230F0296A11DB11D20932A033C
:103B800080932B0390932C03A0932D03B0932E03CB
:103B900080912F0390913003A0913103B0913203B3
:103BA0000196A11DB11D80932F0390933003A09324
:103BB0003103B0933203BF91AF919F918F913F91A9
:103BC0002F910F900FBE0F901F9018952FB7F8945C
:103BD00060912B0370912C0380912D0390912E0303
:103BE0002FBF08953FB7F89480912F039091300331
:103BF000A0913103B091320326B5A89B05C02F3F99
:103C000019F00196A11DB11D3FBFBA2FA92F982F02
:103C10008827820F911DA11DB11DBC01CD0142E07D
:103C2000660F771F881F991F4A95D1F70895CF9285
:103C3000DF92EF92FF92CF93DF936B017C010E94A2
:103C4000F21DEB01C114D104E104F10479F00E94EA
:103C5000F21D6C1B7D0B683E7340A0F381E0C81A17
:103C6000D108E108F108C851DC4FECCFDF91CF91CA
:103C7000FF90EF90DF90CF900895019739F0880F73
:103C8000991F880F991F02970197F1F7089578946B
:103C900084B5826084BD84B5816084BD85B5826051
:103CA00085BD85B5816085BDEEE6F0E080818160EF
:103CB0008083E1E8F0E010828081826080838081EF
:103CC00081608083E0E8F0E0808181608083E1EBC7
:103CD000F0E0808184608083E0EBF0E080818160AF
:103CE0008083E1E9F0E0808182608083808181606F
:103CF0008083E0E9F0E0808181608083E1EAF0E0A8
:103D0000808182608083808181608083E0EAF0E04E
:103D1000808181608083E1E2F1E080818260808344
:103D2000808181608083E0E2F1E080818160808336
:103D3000EAE7F0E080818460808380818260808314
:103D40008081816080838081806880831092C1003F
:103D500008951F93CF93DF93182FEB0161E00E942A
:103D6000BA1F209711F460E004C0CF3FD10539F4A9
:103D700061E0812FDF91CF911F910C94F61FE12F0D
:103D8000F0E0ED53FA4FE4918E2F90E0FC01319773
:103D9000E131F10508F093C08827EE58FF4F8F4FAF
:103DA0000C948AF584B5806884BDC7BD8DC084B588
:103DB000806284BDC8BD88C0809180008068809387
:103DC0008000D0938900C09388007EC080918000DD
:103DD000806280938000D0938B00C0938A0074C06F
:103DE0008091B00080688093B000C093B3006CC035
:103DF0008091B00080628093B000C093B40064C032
:103E000080919000806880939000D0939900C09337
:103E100098005AC080919000806280939000D09367
:103E20009B00C0939A0050C080919000886080935E
:103E30009000D0939D00C0939C0046C08091A0004C
:103E400080688093A0008091A0008F7B8093A00069
:103E5000D093A900C093A80037C08091A0008062D1
:103E60008093A000D093AB00C093AA002DC0809196
:103E7000A00088608093A000D093AD00C093AC00F8
:103E800023C080912001806880932001D093290174
:103E9000C093280119C08091200180628093200185
:103EA000D0932B01C0932A010FC08091200188601C
:103EB00080932001D0932D01C0932C0105C0C03800
:103EC000D1050CF055CF4FCFDF91CF911F910895C1
:103ED00090E0FC013197E131F10508F04AC08827F4
:103EE000ED57FF4F8F4F0C948AF5809180008F77AC
:103EF00003C0809180008F7D80938000089584B5F9
:103F00008F7702C084B58F7D84BD08958091B00005
:103F10008F7703C08091B0008F7D8093B0000895AB
:103F2000809190008F7707C0809190008F7D03C0B3
:103F300080919000877F8093900008958091A000E9
:103F40008F7707C08091A0008F7D03C08091A00073
:103F5000877F8093A0000895809120018F7707C00C
:103F6000809120018F7D03C080912001877F809305
:103F700020010895CF93DF9390E0FC01E75FF94FB4
:103F80002491FC01E15BF94F8491882361F190E079
:103F9000880F991FFC01E155F94FC591D491FC019F
:103FA000EB56F94FA591B491611109C09FB7F894F0
:103FB0008881209582238883EC912E230BC0623068
:103FC00061F49FB7F8948881322F309583238883DA
:103FD000EC912E2B2C939FBF06C08FB7F894E881ED
:103FE0002E2B28838FBFDF91CF9108951F93CF93FE
:103FF000DF93282F30E0F901ED53FA4F8491F90156
:10400000E75FF94FD491F901E15BF94FC491CC23FB
:10401000C1F0162F81110E94681FEC2FF0E0EE0F07
:10402000FF1FEB56F94FA591B4919FB7F89411116A
:1040300004C08C91D095D82302C0EC91DE2BDC9388
:104040009FBFDF91CF911F9108951F920F920FB6DE
:104050000F9211240BB60F922F933F934F935F93C0
:104060006F937F938F939F93AF93BF93EF93FF9340
:104070008091370390913803892B29F0E091370321
:10408000F09138031995FF91EF91BF91AF919F91F6
:104090008F917F916F915F914F913F912F910F90F1
:1040A0000BBE0F900FBE0F901F9018951F920F928E
:1040B0000FB60F9211240BB60F922F933F934F938D
:1040C0005F936F937F938F939F93AF93BF93EF9380
:1040D000FF938091390390913A03892B29F0E09165
:1040E0003903F0913A031995FF91EF91BF91AF9188
:1040F0009F918F917F916F915F914F913F912F9100
:104100000F900BBE0F900FBE0F901F9018951F922F
:104110000F920FB60F9211240BB60F922F933F936D
:104120004F935F936F937F938F939F93AF93BF93BF
:10413000EF93FF9380913B0390913C03892B29F0EF
:10414000E0913B03F0913C031995FF91EF91BF91F2
:10415000AF919F918F917F916F915F914F913F911F
:104160002F910F900BBE0F900FBE0F901F901895C0
:104170001F920F920FB60F9211240BB60F922F932E
:104180003F934F935F936F937F938F939F93AF93DF
:10419000BF93EF93FF9380913D0390913E03892B52
:1041A00029F0E0913D03F0913E031995FF91EF91C5
:1041B000BF91AF919F918F917F916F915F914F913F
:1041C0003F912F910F900BBE0F900FBE0F901F903D
:1041D00018951F920F920FB60F9211240BB60F92E3
:1041E0002F933F934F935F936F937F938F939F93FF
:1041F000AF93BF93EF93FF93809133039091340378
:10420000892B29F0E0913303F09134031995FF9144
:10421000EF91BF91AF919F918F917F916F915F913E
:104220004F913F912F910F900BBE0F900FBE0F90AB
:104230001F9018951F920F920FB60F9211240BB674
:104240000F922F933F934F935F936F937F938F932F
:104250009F93AF93BF93EF93FF938091350390911A
:104260003603892B29F0E0913503F0913603199537
:10427000FF91EF91BF91AF919F918F917F916F913E
:104280005F914F913F912F910F900BBE0F900FBEFA
:104290000F901F9018951F920F920FB60F92112436
:1042A0000BB60F922F933F934F935F936F937F9330
:1042B0008F939F93AF93BF93EF93FF9380913F03AF
:1042C00090914003892B29F0E0913F03F091400346
:1042D0001995FF91EF91BF91AF919F918F917F9130
:1042E0006F915F914F913F912F910F900BBE0F9067
:1042F0000FBE0F901F9018951F920F920FB60F923E
:1043000011240BB60F922F933F934F935F936F93AC
:104310007F938F939F93AF93BF93EF93FF9380917E
:10432000410390914203892B29F0E0914103F091E0
:1043300042031995FF91EF91BF91AF919F918F919A
:104340007F916F915F914F913F912F910F900BBE95
:104350000F900FBE0F901F901895FF920F931F9311
:10436000CF93DF9388EA9FEF909367038093660370
:1043700040915A0388E0840F405E682F0E94732B9F
:104380000E94E43080915A038435D8F546E958E01C
:1043900066E180E00E94CE3117E106E1C0E0D0E0A6
:1043A000FC2E40915A03842F90E0880F991F9E01A4
:1043B0002D5E3F4F2817390744F4440F44514C1BDE
:1043C000212F602F80E00E94EF3080915A03282F28
:1043D00030E0220F331F2C173D0734F0880F212FB8
:1043E0004FE7602F8F1904C0212F4FE7602F80E027
:1043F0000E94EF3021960E5F1E5FCA30D10581F614
:1044000009C0815080935A0346E958E066E180E094
:104410000E94CE310E94362B80914303811113C03C
:1044200020915A0330E0220F331F40910802429F2F
:10443000C001439F900D112464E670E00E9435F5A1
:1044400088E00E94A91E80915903811104C08091C7
:1044500065038823E9F18091430381110DC08091A8
:1044600008022FEF829FC001112464E670E00E94D1
:1044700035F588E00E94A91E1092590310925A0344
:104480004CE360E380E30E94732B8091650381110C
:104490000E94393280E094E00E94D1FC853579F4A5
:1044A00020E030E0A90160914A0F70914B0F80919C
:1044B0004C0F90914D0F0E9431F1811103C08CEC93
:1044C0009EE302C08EE692E29093620380936103C2
:1044D000DF91CF911F910F91FF90089548ED56E025
:1044E0006FEC76E089EC96E00E948126809165036E
:1044F000882349F180916603909167039C01295FAD
:104500003F4F2F30310558F40E94147684E69FE027
:104510000E94D2DF62E070E085E296E712C09C0163
:10452000285031092830310528F468EA7FEF8CEBF8
:104530009AE507C04097089730F468EA7FEF89E36F
:104540009FE30E945126809164038823A1F080910B
:10455000660390916703883A9F4F69F4109259035C
:1045600080915A03893C58F068EA7FEF81EC92E22F
:104570000E94512604C01092590310925A030C94C1
:10458000362B9F92AF92BF92CF92DF92EF92FF9223
:104590000F931F93CF93DF938091660390916703EE
:1045A000883A9F4F39F58AE190E0909367038093B2
:1045B000660321E338E083E043E0F90190E04193B2
:1045C0009F5F9530E1F781502B5F3F4F8111F5CF11
:1045D000109241081092400880E099E390934308BC
:1045E00080934208109245081092440810924708A0
:1045F00010924608809166039091670397FF04C06C
:10460000109267031092660380916603909167038E
:10461000880F991F8B36910534F085E390E09093D5
:104620006703809366038091440890914508209128
:10463000400830914108280F391F309341082093DA
:104640004008609146087091470840914208509197
:104650004308460F571F50934308409342082F3F8B
:10466000310509F01CF497FF0DC009C02130ECE7BB
:104670003E0764F097FF03C091958195910991954C
:104680008195910990934508809344084F3F5105C7
:1046900009F05CF4CB0177FF03C0919581959109F6
:1046A00090934708809346080CC04115FEE15F07D0
:1046B00044F0809142089091430881309A43D4F5A8
:1046C0007FC0952F990F990B852F6AE070E00E94AB
:1046D00035F5262F932F990F990B832F69E170E001
:1046E0000E9435F5FB01FF2785E0289FE00DF11DB5
:1046F0001124EF5CF74F80818823D9F281508083A9
:10470000809146089091470897FF03C09195819545
:104710009109909347088093460881E398E0AC01A3
:1047200023E0FA0130E061916111C3CF3F5F353082
:10473000D1F7D7C02091400830914108809166039D
:10474000909167030197880F991F582F44272417CA
:10475000350734F04796982F88278217930734F44B
:1047600068EA7FEF8EE692E20E945126209166036E
:10477000309167032B5F3F4F322F2227330F8091F9
:10478000400890914108821B930B97FDCF9656E00D
:10479000959587955A95E1F7209144083091450801
:1047A000820F931F909345088093440897FF03C09E
:1047B000919581959109925090934708809346086E
:1047C0008091460890914708892B59F580E099E33C
:1047D0009093430880934208809166039091670309
:1047E0009C012B5F3F4F220F331F109240082093F4
:1047F0004108209165032223A1F0809733E0880FC0
:10480000991F3A95E1F7909345088093440897FFE4
:1048100003C0919581959109925090934708809398
:1048200046080E94E43021E3E22E28E0F22ED3E095
:1048300087E0A82EAD0E99249A949D0E96E0B92E8D
:10484000BD0E8701C4E06801F8018081882341F032
:104850002A2D43E14C0F692D8FEF8C0F0E944C30B5
:10486000F8018081823039F42B2D42E14C0F6D2FFD
:104870008C2F0E9477300F5F1F4FF60180818330AD
:1048800039F42B2D42E14C0F6D2F8C2F0E945E319D
:10489000C75EC138C1F6D65FF5E0EF0EF11CD1322C
:1048A00039F6609143088091410822E0260F42E0EA
:1048B000480F0E944C3080916603880F45E1480FF5
:1048C0002FE36CE30E944C30DF91CF911F910F9149
:1048D000FF90EF90DF90CF90BF90AF909F900C949F
:1048E000362B21504B5F5F4F21111BCF23E043E05C
:1048F000FC0130E041933F5F3530E1F721500596F0
:104900002111F6CFD6CE0E94AD320E949966811158
:1049100027C0E0E9F8E08491882341F09091C0003D
:1049200095FFFCCF8093C6003196F5CFE9E5F8E01E
:104930008491882341F09091C00095FFFCCF809333
:10494000C6003196F5CF8091C00085FFFCCF8AE08C
:104950008093C6000E94795B60E080E00E94FA6468
:104960000E9462628DEA91E29093620380936103F8
:1049700060E070E088E00E94A91E0E94E61DDC0154
:10498000CB0188589341A109B109809345039093C5
:104990004603A0934703B09348030895CF92DF9254
:1049A000EF92FF920E946E2B882309F468C10E9447
:1049B0008E3282B382FB992790F981E0892790910A
:1049C000680F891759F090910C11992321F091509B
:1049D00090930C1106C08093680F03C088E2809307
:1049E0000C119091590380915A03992341F0825000
:1049F00080935A0381110BC01092590308C08E5F37
:104A000080935A038E3719F481E0809359030E94F2
:104A1000F9A2882309F491C00E94E43069E478E0A7
:104A20008AE00E94EA2E0E9400A390E0FC013197E8
:104A3000EA30F10508F079C08827EC56FF4F8F4F18
:104A40000C948AF56DE378E084E10E94EA2E46E357
:104A500058E068E281E00E94382D43E258E061C0EE
:104A600063E178E084E10E94EA2E4CE058E068E2DD
:104A700081E00E94382D49EF57E053C06CEE77E09B
:104A800084E10E94EA2E45EE57E068E281E00E9450
:104A9000382D42ED57E045C063EC77E084E10E9499
:104AA000EA2E4CEB57E068E281E00E94382D49EA9B
:104AB00057E037C069E977E084E10E94EA2E42E9D5
:104AC00057E068E281E00E94382D4FE757E029C0A7
:104AD00060E777E084E10E94EA2E49E657E068E269
:104AE00081E00E94382D46E557E01BC061E477E085
:104AF00084E10E94EA2E4AE357E068E281E00E94E6
:104B0000382D47E257E00DC063E177E084E10E9471
:104B1000EA2E4CE057E068E281E00E94382D49EF30
:104B200056E062E381E00E94382D80915A0360E8EC
:104B3000681B482F0E94732B32C00E94E61DC09054
:104B40004503D0904603E0904703F0904803DC0112
:104B5000CB018C199D09AE09BF0988389341A10585
:104B6000B10518F58091440381110AC00E94E43018
:104B700064EE76E084E10E94EA2E81E080934403B3
:104B80008091700C8350833050F40E94E61D609336
:104B90004503709346038093470390934803FF9027
:104BA000EF90DF90CF900C94362B109244032DECB5
:104BB0003CEC4CE45DE36091D1197091D219809185
:104BC000D3199091D4190E943AF46B017C0123E32C
:104BD00033E343E75FE36091040270910502809143
:104BE0000602909107020E943AF49B01AC01C701B2
:104BF000B6010E943CF0609304027093050280931A
:104C00000602909307022DEC3CEC4CE45DE36091CE
:104C1000CB197091CC198091CD199091CE190E9429
:104C20003AF46B017C0123E333E343E75FE36091F4
:104C300000027091010280910202909103020E9491
:104C40003AF49B01AC01C701B6010E943CF06093AD
:104C50000002709301028093020290930302E0919C
:104C60006103F09162031995E0915D03F0915E0399
:104C7000309729F0FF90EF90DF90CF901994FF903C
:104C8000EF90DF90CF9008951092DA191092D91911
:104C90001092D8191092D7191092340F08950C94CD
:104CA0005C320F931F93CF93DF938C01EB01109233
:104CB00058031092590310925A034CE360E380E3C7
:104CC0000E94732B0E94393280916103909162039C
:104CD0009093600380935F038091660390916703D4
:104CE00090935C0380935B031093620300936103D2
:104CF000D0936703C0936603DF91CF911F910F910B
:104D00000895EF92FF920F931F93CF93DF937C014F
:104D10008B01EA018091660390916703883A2FEF37
:104D2000920799F097FF05C0489690936703809388
:104D300066038091660390916703883191052CF09A
:104D4000489790936703809366030E94E4304DE296
:104D500065E080E40E94F92F40E36CE783E00E9465
:104D6000DE2F809166039091670307960F9790F46A
:104D70002BE24BE367E085E00E944C302AE24AE3F5
:104D800068E086E00E945E31A70166E181E20E9450
:104D9000792F05C0A70166E181E20E94142F80915E
:104DA0006603909167030897089790F42BE24BE70E
:104DB00067E085E40E944C302AE24AE768E086E436
:104DC0000E945E31A80166E181E60E94792F05C04C
:104DD000A80166E181E60E94142F209739F18091A5
:104DE00066039091670340970897B0F42DE34BE773
:104DF00063E385E00E944C302CE34AE764E386E0FD
:104E00000E945E31BE0185E3DF91CF911F910F912A
:104E1000FF90EF900C94FF2EBE0185E3DF91CF91C0
:104E20001F910F91FF90EF900C94EA2EDF91CF919C
:104E30001F910F91FF90EF9008950E94E43040E39E
:104E40006CE783E00C94DE2F0F931F93CF93DF93D7
:104E50008C01EA018091660390916703883A2FEFF5
:104E6000920799F097FF05C040969093670380934F
:104E700066038091660390916703803191052CF061
:104E8000409790936703809366038091650388231E
:104E9000A1F0809166039091670307960F9768F4DD
:104EA0006115710511F0FB0119950115110529F026
:104EB00068EA7FEFC8010E9451260E941D272097B3
:104EC00011F4CFE1DAE080916603909167030796D1
:104ED0000F97E8F42DE34BE763E385E00E944C3045
:104EE0002CE34AE764E386E00E945E31CE010E9433
:104EF000D5F8982F990F890FAE0165E391E4981BBF
:104F0000892FDF91CF911F910F910C940C2ECE0120
:104F10000E94D5F8982F990F890FAE0165E391E4AF
:104F2000981B892FDF91CF911F910F910C94382DF1
:104F3000AF92BF92CF92DF92EF92FF920F931F93A7
:104F4000CF93DF935C01EA01690180916603909140
:104F50006703883A2FEF920799F097FF05C04096B4
:104F60009093670380936603809166039091670333
:104F7000803191052CF040979093670380936603EE
:104F800080916503882331F18091660390916703D6
:104F90009C01295F3F4F2F30310560F46115710589
:104FA00011F0FB011995A114B104A1F068EA7FEF9B
:104FB000C5010EC00897089768F40115110511F096
:104FC000F8011995C114D10429F068EA7FEFC601F0
:104FD0000E9451260E941D278091660390916703CD
:104FE00007960F97D0F42DE34EE363E385E00E942C
:104FF0004C302CE34DE364E386E00E945E31CE0149
:105000000E94D5F8982F990F890FAE0165E393E2BE
:10501000981B892F0E940C2E0DC0CE010E94D5F83E
:10502000982F990F890FAE0165E393E2981B892FA2
:105030000E94382D80916603909167030897089726
:1050400018F52DE34AE763E382E40E944C302CE339
:1050500049E764E383E40E945E31C7010E94D5F80A
:10506000982F990F890FA70165E39FE5981B892F5A
:10507000DF91CF911F910F91FF90EF90DF90CF9034
:10508000BF90AF900C940C2EC7010E94D5F8982FBA
:10509000990F890FA70165E39FE5981B892FDF9181
:1050A000CF911F910F91FF90EF90DF90CF90BF9025
:1050B000AF900C94382DEF92FF921F93CF93DF9314
:1050C000C82F2EE24CE766E283E00E944C30D0E02D
:1050D000219714E08CE0E82EF12CCF3F8FEFD8071A
:1050E000B9F01D37A9F0CE01B7010E9435F5853022
:1050F00020F448E2480F68E205C08A3030F463E2E9
:10510000680F4CE2812F0E94F92F1F5F2197E5CF96
:10511000DF91CF911F91FF90EF9008954F925F9292
:105120006F927F928F929F92AF92BF92CF92DF92B7
:10513000EF92FF920F931F93CF93DF9370916503CC
:105140007111D4C0E0916603F0916703E83AFF4F14
:1051500021F41092670310926603E0916603F091C8
:105160006703062F660F110BF7FF0BC0B801660F20
:10517000771F660F771FE60FF71FF0936703E09323
:105180006603F801EE0FFF1FEE0FFF1F609166032D
:10519000709167036E177F0734F06E1B7F0B70935F
:1051A000670360936603C0916603D0916703D7FDE0
:1051B000239679015A016C01D595C795D595C79568
:1051C0007C2E0E94E4302091490330914A03FE0175
:1051D000FF2763E0EE0FFF1F6A95E1F73F97E21BA1
:1051E000F30BCF01F7FD03969595879595958795D8
:1051F000820F931F1E161F0614F4019608C0EF2B92
:1052000029F490934A038093490309C0019790932E
:105210004A03809349031092590310925A038091D4
:10522000490390914A03282F277033E0969587957C
:105230003A95E1F79AE3492E421A9AE0592E521A0A
:10524000682E862D90E080179107DCF4862DF501FD
:1052500019954C01FC01148A76100EC027E0250D2B
:105260004CE76FEF650D83E00E945E31A401652D70
:1052700084E00E94442C05C0AC01652D84E00E94AE
:105280007A2B6394F8E05F0E4510DBCF28E04CE703
:1052900060E083E00E945E312FE34CE76FE283E041
:1052A0000E94EF3029E04CE769E083E00E94EF3094
:1052B00040E36CE783E00E94DE2FB60181E00E94AC
:1052C000FF2E8C2FF7011995DF91CF911F910F9130
:1052D000FF90EF90DF90CF90BF90AF909F908F9016
:1052E0007F906F905F904F900C94362BDF91CF9111
:1052F0001F910F91FF90EF90DF90CF90BF90AF90F4
:105300009F908F907F906F905F904F9008950F9334
:105310001F93CF93DF93CDB7DEB766970FB6F894A0
:10532000DEBF0FBECDBF80914F03909150032091FF
:105330006603309167032817390724F490936703B5
:105340008093660380914D0390914E0320916603F4
:10535000309167038217930724F490936703809337
:10536000660380915103813041F4E0915203F09142
:1053700053038091660380838EC0823059F4E0919C
:105380005203F091530380916603909167039183D8
:10539000808381C08330A9F400915203109153039C
:1053A0006091660370916703072E000C880B990BC0
:1053B0000E94E5F120E030E048EC52E40E943BF12D
:1053C00065C0843089F4E0915203F09153038091D9
:1053D000660390916703092E000CAA0BBB0B808318
:1053E0009183A283B38357C08530A1F4E091520327
:1053F000F091530320916603309167034FEF429F72
:10540000C001439F900D112464E670E00E9435F5C1
:10541000608341C0863099F4009152031091530388
:105420006091660370916703072E000C880B990B3F
:105430000E94E5F120E030E040E752E414C08730FC
:10544000A9F4009152031091530360916603709187
:105450006703072E000C880B990B0E94E5F120E0F2
:1054600030E048EC52E40E943AF410C0883099F4DD
:10547000009152031091530360916603709167038A
:10548000072E000C880B990B0E94E5F1F801608350
:105490007183828393830E941D27609156037091CC
:1054A000570384E10E94EA2E209151038091660304
:1054B000909167030091540310915503233099F4A0
:1054C000BC01990F880B990B0E94E5F120E030E0B8
:1054D00048EC52E40E943BF19801AE014F5F5F4FF0
:1054E0000E947A3406C0A801BE016F5F7F4F0E9400
:1054F0007233BE016F5F7F4F8EE10E94182D68E10D
:105500007AE0CE0101960E94CEF8209151030091DD
:1055100054031091550380914B0390914C03233019
:1055200099F4BC01990F880B990B0E94E5F120E0DA
:1055300030E048EC52E40E943BF19801AE01495F33
:105540005F4F0E947A3406C0A801BE01695F7F4F99
:105550000E947233BE016F5F7F4F85E30E94182D5A
:105560000E94362B80916503882351F060915B0384
:1055700070915C0380915F03909160030E945126BB
:1055800066960FB6F894DEBF0FBECDBFDF91CF9108
:105590001F910F9108959091BC0097FFFCCF8093CD
:1055A000BB0084E88093BC0008958091BC0087FF15
:1055B000FCCF84E98093BC000895CF93DF93D82F6C
:1055C000C62F84EA8093BC0080EC0E94CB2A8D2FEA
:1055D0000E94CB2A8C2F0E94CB2ADF91CF910C9472
:1055E000D52A1F920F920FB60F9211240BB60F926D
:1055F0002F933F934F935F936F937F938F939F93DB
:10560000AF93BF93EF93FF938091690390916A03E7
:10561000811524E0920719F40E94D52A14C0FC01D8
:10562000E259FC4F80810E94CB2A8091BC008160AE
:105630008093BC008091690390916A0301969093D6
:105640006A0380936903FF91EF91BF91AF919F919E
:105650008F917F916F915F914F913F912F910F901B
:105660000BBE0F900FBE0F901F90189560916D03A9
:1056700082E00E94DD2A60916C0383E00E94DD2AB3
:1056800060916B0384E00E94DD2A84EA8093BC0071
:1056900088E70E94CB2A80E00E94CB2A80E00E940B
:1056A000CB2A80E10E94CB2A80EB0E94CB2A8091FA
:1056B000BC0087FFFCCF84EA8093BC0088E70E948F
:1056C000CB2A80E40E94CB2A10926A0310926903CD
:1056D0008091BC0081608093BC0008958091BC00E3
:1056E00080958170089580936D0360936C0340935F
:1056F0006B0308950F931F93CF93DF93962F969587
:1057000096959695A82FB0E080E8989FA00DB11DC2
:105710001124ED01C259DC4FA251BC4F677078E0F3
:10572000761B15E0FA018081882309F4A8C090E077
:105730008097189F9001199F300D1124C901835C37
:10574000954FFC010491E02F062E01C0EE0F0A9444
:10575000EAF7F881EF2BE883F901E25CF54FE49179
:10576000062E01C0EE0F0A94EAF72981E22BE983A5
:10577000FC013296E491062E01C0EE0F0A94EAF77E
:105780002A81E22BEA83FC013396E491062E01C0C4
:10579000EE0F0A94EAF72B81E22BEB83FC0134969F
:1057A000E491062E01C0EE0F0A94EAF78C81E82BF3
:1057B000EC832696662309F45FC0FA01808190E0AD
:1057C0008097189F9001199F300D1124C901835CA7
:1057D000954FFC010491E02FF0E0072E02C0F595F3
:1057E000E7950A94E2F7FC91EF2BEC93F901E25C68
:1057F000F54FE491F0E0072E02C0F595E7950A9485
:10580000E2F711962C911197E22B1196EC931197D8
:10581000FC013296E491F0E0072E02C0F595E79581
:105820000A94E2F712962C911297E22B1296EC93BF
:105830001297FC013396E491F0E0072E02C0F59533
:10584000E7950A94E2F713962C911397E22B13969F
:10585000EC931397FC013496E491F0E0072E02C01C
:10586000F595E7950A94E2F714968C911497E82B36
:105870001496EC93149716964F5F5F4F53CFDF91BA
:10588000CF911F910F9108950F931F93CF93DF93A3
:10589000962F969596959695A82FB0E080E8989FBC
:1058A000A00DB11D1124ED01C259DC4FA251BC4F16
:1058B000677078E0761B15E0FA018081882309F48F
:1058C000B2C090E08097189F9001199F300D11246D
:1058D000C901835C954FFC010491E02F062E01C0A5
:1058E000EE0F0A94EAF7E095F881EF23E883F901D7
:1058F000E25CF54FE491062E01C0EE0F0A94EAF740
:10590000E0952981E223E983FC013296E491062E99
:1059100001C0EE0F0A94EAF7E0952A81E223EA83B8
:10592000FC013396E491062E01C0EE0F0A94EAF7CB
:10593000E0952B81E223EB83FC013496E491062E63
:1059400001C0EE0F0A94EAF7E0958C81E823EC831E
:105950002696662309F464C0FA01808190E080975E
:10596000189F9001199F300D1124C901835C954F38
:10597000FC010491E02FF0E0072E02C0F595E795B9
:105980000A94E2F7E095FC91EF23EC93F901E25CD5
:10599000F54FE491F0E0072E02C0F595E7950A94E3
:1059A000E2F7E09511962C911197E2231196EC9372
:1059B0001197FC013296E491F0E0072E02C0F595B4
:1059C000E7950A94E2F7E09512962C911297E2235C
:1059D0001296EC931297FC013396E491F0E0072EB7
:1059E00002C0F595E7950A94E2F7E09513962C919D
:1059F0001397E2231396EC931397FC013496E491EA
:105A0000F0E0072E02C0F595E7950A94E2F7E095DD
:105A100014968C911497E8231496EC931497169689
:105A20004F5F5F4F49CFDF91CF911F910F91089545
:105A3000AB01FB0101900020E9F73197E61BF70B62
:105A40009E2F990FE90F682F80E48E1B0C947A2B00
:105A5000AB01FB0101900020E9F73197E61BF70B42
:105A60009E2F990FE90F682F80E48E1B0C94442C15
:105A7000AF92BF92CF92DF92EF92FF920F931F935C
:105A8000CF93DF93962F969596959695A82FB0E095
:105A900080E8989FA00DB11D1124ED01C259DC4F83
:105AA000A251BC4F677078E0761BFA01249185E023
:105AB000B82E222309F4A5C030E020523109B29E4D
:105AC0008001B39E100D11249801235C354FF9011C
:105AD0009491062E01C0990F0A94EAF7E8819E2B53
